02:40:42.596077 LLDP, length 125
02:40:42.596088 02:eb:69:28:3b:3a (oui Unknown) > Broadcast, ethertype Unknown (0x8942), length 139: 
	0x0000:  0207 0400 0000 0000 0204 0202 3406 0200  ............4...
	0x0010:  78fe 12a4 2305 014f 4e4f 5320 4469 7363  x...#..ONOS.Disc
	0x0020:  6f76 6572 79fe 17a4 2305 026f 663a 3030  overy...#..of:00
	0x0030:  3030 3030 3030 3030 3030 3030 3032 fe0c  00000000000002..
	0x0040:  a423 0504 0000 0185 bf51 1e5c fe24 a423  .#.......Q.\.$.#
	0x0050:  0505 5da8 cbd5 5265 0fcf c093 a3d2 4209  ..]...Re......B.
	0x0060:  0d75 20b6 7af4 274b db63 bbed c38c 336c  .u..z.'K.c....3l
	0x0070:  f794 0807 7332 2d65 7468 3400 00         ....s2-eth4..
02:40:45.695552 LLDP, length 125
02:40:45.695560 02:eb:69:28:3b:3a (oui Unknown) > Broadcast, ethertype Unknown (0x8942), length 139: 
	0x0000:  0207 0400 0000 0000 0204 0202 3406 0200  ............4...
	0x0010:  78fe 12a4 2305 014f 4e4f 5320 4469 7363  x...#..ONOS.Disc
	0x0020:  6f76 6572 79fe 17a4 2305 026f 663a 3030  overy...#..of:00
	0x0030:  3030 3030 3030 3030 3030 3030 3032 fe0c  00000000000002..
	0x0040:  a423 0504 0000 0185 bf51 2a77 fe24 a423  .#.......Q*w.$.#
	0x0050:  0505 0801 76c8 2c95 478d f3d5 fc13 d7d8  ....v.,.G.......
	0x0060:  9fde 750d e350 fa1a fc13 f4f5 e0e3 c874  ..u..P.........t
	0x0070:  4aab 0807 7332 2d65 7468 3400 00         J...s2-eth4..
02:40:48.796554 LLDP, length 125
02:40:48.796567 02:eb:69:28:3b:3a (oui Unknown) > Broadcast, ethertype Unknown (0x8942), length 139: 
	0x0000:  0207 0400 0000 0000 0204 0202 3406 0200  ............4...
	0x0010:  78fe 12a4 2305 014f 4e4f 5320 4469 7363  x...#..ONOS.Disc
	0x0020:  6f76 6572 79fe 17a4 2305 026f 663a 3030  overy...#..of:00
	0x0030:  3030 3030 3030 3030 3030 3030 3032 fe0c  00000000000002..
	0x0040:  a423 0504 0000 0185 bf51 3694 fe24 a423  .#.......Q6..$.#
	0x0050:  0505 3070 fb7a 7ed6 efc7 c086 4882 45a1  ..0p.z~.....H.E.
	0x0060:  c3a3 498a c031 4d96 f36b 7e24 8b38 777f  ..I..1M..k~$.8w.
	0x0070:  8129 0807 7332 2d65 7468 3400 00         .)..s2-eth4..
