02:01:14.548201 IP 10.0.0.1 > 10.0.0.4: ICMP echo request, id 1114, seq 1, length 64
02:01:14.697044 LLDP, length 125
02:01:14.697149 02:eb:69:28:3b:3a (oui Unknown) > Broadcast, ethertype Unknown (0x8942), length 139: 
	0x0000:  0207 0400 0000 0000 0204 0202 3206 0200  ............2...
	0x0010:  78fe 12a4 2305 014f 4e4f 5320 4469 7363  x...#..ONOS.Disc
	0x0020:  6f76 6572 79fe 17a4 2305 026f 663a 3030  overy...#..of:00
	0x0030:  3030 3030 3030 3030 3030 3030 3032 fe0c  00000000000002..
	0x0040:  a423 0504 0000 0185 bf2c fcc0 fe24 a423  .#.......,...$.#
	0x0050:  0505 0158 d283 90fb 6a94 b423 c8d3 67be  ...X....j..#..g.
	0x0060:  a389 a64e 46ff f0c3 8070 9510 f0fb 3092  ...NF....p....0.
	0x0070:  f5cb 0807 7332 2d65 7468 3200 00         ....s2-eth2..
02:01:15.568491 IP 10.0.0.1 > 10.0.0.4: ICMP echo request, id 1114, seq 2, length 64
02:01:16.582898 IP 10.0.0.1 > 10.0.0.4: ICMP echo request, id 1114, seq 3, length 64
02:01:17.598314 IP 10.0.0.1 > 10.0.0.4: ICMP echo request, id 1114, seq 4, length 64
02:01:17.797621 LLDP, length 125
02:01:17.797645 02:eb:69:28:3b:3a (oui Unknown) > Broadcast, ethertype Unknown (0x8942), length 139: 
	0x0000:  0207 0400 0000 0000 0204 0202 3206 0200  ............2...
	0x0010:  78fe 12a4 2305 014f 4e4f 5320 4469 7363  x...#..ONOS.Disc
	0x0020:  6f76 6572 79fe 17a4 2305 026f 663a 3030  overy...#..of:00
	0x0030:  3030 3030 3030 3030 3030 3030 3032 fe0c  00000000000002..
	0x0040:  a423 0504 0000 0185 bf2d 08dc fe24 a423  .#.......-...$.#
	0x0050:  0505 4b69 e2b6 d6ec ca8d 92dc 737a 4108  ..Ki........szA.
	0x0060:  db95 18e1 fe26 077f b4a8 757a 3ec3 caa7  .....&....uz>...
	0x0070:  73ca 0807 7332 2d65 7468 3200 00         s...s2-eth2..
02:01:18.690867 IP 10.0.0.1 > 10.0.0.4: ICMP echo request, id 1114, seq 5, length 64
02:01:19.585316 ARP, Request who-has 10.0.0.4 tell 10.0.0.1, length 28
02:01:19.710663 IP 10.0.0.1 > 10.0.0.4: ICMP echo request, id 1114, seq 6, length 64
02:01:20.613187 ARP, Request who-has 10.0.0.4 tell 10.0.0.1, length 28
02:01:20.738416 IP 10.0.0.1 > 10.0.0.4: ICMP echo request, id 1114, seq 7, length 64
02:01:20.896589 LLDP, length 125
02:01:20.896597 02:eb:69:28:3b:3a (oui Unknown) > Broadcast, ethertype Unknown (0x8942), length 139: 
	0x0000:  0207 0400 0000 0000 0204 0202 3206 0200  ............2...
	0x0010:  78fe 12a4 2305 014f 4e4f 5320 4469 7363  x...#..ONOS.Disc
	0x0020:  6f76 6572 79fe 17a4 2305 026f 663a 3030  overy...#..of:00
	0x0030:  3030 3030 3030 3030 3030 3030 3032 fe0c  00000000000002..
	0x0040:  a423 0504 0000 0185 bf2d 14f8 fe24 a423  .#.......-...$.#
	0x0050:  0505 2b10 cfc9 5a3b e249 d914 e925 1b66  ..+...Z;.I...%.f
	0x0060:  6551 a012 f621 1ab8 1395 685c ab17 ffda  eQ...!....h\....
	0x0070:  9b4f 0807 7332 2d65 7468 3200 00         .O..s2-eth2..
02:01:21.638478 ARP, Request who-has 10.0.0.4 tell 10.0.0.1, length 28
